:020000041000EA
:1000000000200008CB0000100D0000002D010010A2
:1000100000000000000000000000000000000000E0
:100020000000000000000000000000002901001096
:10003000000000000000000029010010290100104C
:1000400029010010290100102901001029010010C8
:1000500029010010290100102901001029010010B8
:1000600029010010290100102901001029010010A8
:100070002901001029010010290100102901001098
:1000800010B5064C2378002B07D1054B002B02D06E
:10009000044800E000BF0123237010BDEC020008FB
:1000A0000000000074110010044B10B5002B03D0A9
:1000B0000349044800E000BF10BDC0460000000036
:1000C000F0020008741100107047FFF7FDFF72B6D0
:1000D0000F4C104DAC4209DA21686268A368043BFA
:1000E00002DBC858D050FAE70C34F3E70A490B4A50
:1000F0000020521A02DD043A8850FCDC0848094905
:100100000860BFF34F8F00F0E9F800F075F9FEE7E3
:100110007811001090110010EC020008CC040008C7
:100120000000000808ED00E0FEE7FEE700B504204F
:100130007146084202D0EFF3098001E0EFF3088036
:10014000043000F0DBFBFEE710B5002000F098FA69
:1001500010BD7047F8B5E0234E4C9B00E2580F23CA
:10016000D02107201A4093001B19890059580140DB
:1001700065D0042959D04848002A65D1B223B1225C
:100180000321DB00D200E558A358A6581B0F360FF9
:100190000B400E4204D0A258120F0A40012A01D18E
:1001A000EA0701D4032B11D1B0233C4ADB00E65807
:1001B000A158E558C904C90C00F0ACFDB3039B0B72
:1001C0005843E901C90F013100F0A4FDE0239B0071
:1001D000E358334A9B069B0FD840324B1860324B92
:1001E000D458D158240A090E013100F093FD2F4B49
:1001F000E1B21860013100F08DFD2D4B0400186054
:100200002C4B2D4918602D4BC01800F083FDFA21AE
:100210002B4B890018702B4BE01800F07BFD2A4B0C
:1002200018602A4BC0031860F8BDC0211F20890048
:1002300059580140112904D1802000029CE724482C
:100240009AE7FA20C00197E7013A012ABED80327AE
:10025000204A9E58204A99589D582D0F3D4204D05F
:100260009D582D0F3D40012D01D1F50703D4890084
:10027000890F0329AAD19E5899589D587F2333404E
:100280001F26090A3140584300F044FD290C314033
:100290009AE7C0460000264000366E018405000043
:1002A00000002040840000080810000088000008BA
:1002B000800000089000000840420F003F420F00FD
:1002C00098000008E7030000940000088C00000874
:1002D00000127A003C060000FC05000010B51D4825
:1002E00000F0A6F8B022E02130201B4CD200A35829
:1002F00089005B005B08A3506358834363508023ED
:100300005B04A350154B164AE250A022043392011D
:10031000E250FF22134BE25000F096FCC022012174
:100320005200A3588B43A350FFF713FFFFF712FFB0
:100330000D4A8021032000F00BFA0C4800F07EF8F3
:100340000B4B1B6851331B78002B02D0094800F07F
:10035000E3F810BDC40E0010000026408405000024
:10036000010002008C050000980200080803000844
:10037000C8040008900E001010B5902400F051F849
:10038000074B64011A5907491140074A0A431A5199
:10039000102259681142FCD000F047F810BDC04649
:1003A00000002040FCFF00000100FA05F8B5902590
:1003B0000E4C6D01070000F034F863590600DB4372
:1003C0009B0701D1FFF7D8FF80239B00E7506359BB
:1003D000074A1A40074B13436351102362681A42BD
:1003E000FCD0300000F021F8F8BDC04600002040ED
:1003F000FCFF00000300FA0510B562B60348FFF7E2
:10040000D5FF002000F08AFBFBE7C046002000106B
:100410000230800803D001300238FCD1C046C0460B
:100420007047EFF3108072B6704780F31088704702
:10043000014B18607047C046C8040008024B1A6898
:10044000002A00D11860704788040008F7B52C4DC9
:100450001F002B68040000910192002B03D1BF21E3
:10046000284800F03BFA2C23FF225C432B683D0018
:100470001C193B0A3F0CA760234F134063603B6885
:100480001540256031331B789D4204D3E9211F4874
:10049000490000F023FA3B681A00B0321288554335
:1004A0001A6A3233AD1825611B7865689D4204D302
:1004B000F7211648490000F011FA3B6880351B6AA5
:1004C0006D01A668ED186561330C08D00F4F104917
:1004D000380000F003FA0F49380000F0FFF9330448
:1004E0001A0C1343AB60019BE361009B2362002362
:1004F000A361089B002B01D01B88A381F7BDC046D8
:10050000880400087C0F0010C8040008E20F0010E7
:100510000D0200000E020000F0B5040085B00028B6
:1005200003D15C21214800F0D9F96368032B03D97A
:100530005E211E4800F0D2F9E36A002B03D162214C
:100540001A4800F0CBF9236B002B03D16321174825
:1005500000F0C4F9A36802AD2B80154B22681B681C
:10056000E16ADB8EE0689B186B806368A26A039384
:1005700000952369266A676AFFF768FF00213B0040
:100580000A0000913000FFF761FF216B280000F0A6
:1005900051F90022AB5E002B06DB1F2213401E3AEE
:1005A0009A401300034A136005B0F0BD7C0F0010A1
:1005B000C804000800E100E0002373B504000193C3
:1005C000984204D1DC212C48FF3100F087F92369DF
:1005D000002B04D1EE212848490000F07FF963691F
:1005E000002B04D1DE212448FF3100F077F9236A83
:1005F000002B04D1EF212048490000F06FF9626917
:10060000D5682B0C22D01B04136013681B4B206988
:100610001B68B4331B68C3181B68002B16DA01A9CA
:1006200000F05CFB0026B0420CD10198E26903683F
:100630001E0CDBB29A4205D9226A9B009B58002B04
:1006400000D098473100206900F010FBADB2002DBA
:1006500009D063691D6000251B68636AAB4205D041
:1006600098476562A56163691B6873BDA36A002B27
:10067000F8D09847F6E7C0467C0F0010C804000881
:1006800070B5084C05002368002B04D1BC21064836
:10069000FF3100F023F92C20454320684019FFF773
:1006A0008BFF70BD880400087C0F001070B50A4DE8
:1006B00004002B6831331B78834204D8E9210748B2
:1006C000490000F00BF92B681A00B032108844433F
:1006D000186A201870BDC046C8040008E20F001058
:1006E000F8B5174B0D001B6831331B78834225D9B1
:1006F000002923D01F240B681C401FD1FFF7D6FF11
:1007000007002B680F4EDA0821003060686800F09F
:100710008DFB2100380000F0A9FA21002A00306882
:1007200000F0C2FA041E07D10100306800F09EFA02
:1007300003002000002B00D00348F8BD0348FCE76D
:10074000C80400088C04000801018A0003018A0023
:1007500010B50C00002A07D100290DD1FFF7A6FF24
:10076000064B1860200010BD002905D004490C601C
:100770004A60FFF7B5FFF6E70248F4E78C0400088B
:10078000A802000803018A0070B5194E05003368FD
:100790000C001A0028321278012A15D1820807218C
:1007A000100088430FD103202840C00084401B68FC
:1007B000920020339B182200FF24844019684A408D
:1007C00014404C401C6070BD5B8F8B4203D1802174
:1007D000084800F083F8336807201A68802328400F
:1007E0001B06184380239B01E418A400A050EAE7ED
:1007F000C8040008481000100A4B70B59B680A4EE8
:1008000010300D008400B34209D1002904D14221E7
:100810000648FF3100F062F83059355170BD044B85
:100820001859FBE700ED00E0000000084810001038
:1008300000000010F8B506000D00002841D0436804
:10084000032B03D93C21204800F048F80023F05E38
:10085000002828DB7188FFF797FF0024FF22032779
:1008600094460023F05E716883B21F40FF00664625
:10087000BA4089013140D243B940002815DB134EFC
:1008800083089B009B19C026B6009F593A4011432C
:1008900099510F4B9A680F4B9A4202D12900FFF7EA
:1008A000ABFF2000F8BD0C4CD8E70F263340083BC7
:1008B000074E9B089B009B19DE6932401143D961AA
:1008C000E7E7054CEDE7C0464810001000E100E006
:1008D00000ED00E0000000080100560070B50D00BA
:1008E000044C01001822200000F0A8FAA56101BE06
:1008F000FEE7C046B0020008FEE7000002680A4BAF
:1009000010B5DA6142681A6282685A62C2689A62F5
:100910000269DA6242691A6382695A63C2699A6338
:10092000FFF7EAFF10BDC046B0020008B0235B0528
:100930005A782120002A01D05878C0B27047B023DD
:100940005B059A89002A02D0988980B2704780207E
:100950004000FBE710B5074C236831331B78002BB0
:1009600004D1E92104484900FFF7B8FF2368186A59
:1009700010BDC046C8040008E20F001030B50400E6
:1009800085B00D00042803D927492848FFF7A6FFA2
:100990006B1E012B07D9FB222B1F134203D02449C6
:1009A0002248FFF79BFF234BA400E458042D01D0FD
:1009B000012D1AD100200FE0A3682B420BD1E36870
:1009C00029001A685B6802920193039302A82368C6
:1009D0009847194B1C606469002C04D0174B98424F
:1009E000EAD1012DE8D105B030BD022D06D1124B60
:1009F0001B68181EF7D01C6903E01C006369002BFC
:100A0000FBD10020002CEED0A3682B4209D1E36873
:100A100029001A685B6802920193039302A8236875
:100A200098472469EEE7C046E6090000AC100010C4
:100A3000E7090000B4040008B0040008FF00420009
:100A400010B5041E03D111491148FFF747FFF222E8
:100A5000104BD2011B68DB689A582260F022D20149
:100A60009A5862600C4A9A58A2600C4A9A58E260FE
:100A70000B4A9A5822610B4A9A5862610A4A9A585C
:100A8000A2610A4A9B58E36110BDC046D50A000026
:100A9000AC100010C80400080478000008780000BA
:100AA0000C7800001078000014780000187800001E
:100AB00010B5041E03D110491048FFF70FFFF022B4
:100AC0000F4B61681B68D201DB689950A1680D4A21
:100AD0009950E1680C4A995021690C4A9950616912
:100AE0000B4A9950A1690B4A9950E1690A4A9950F9
:100AF0002168E832995010BDFD0A0000AC100010CA
:100B0000C804000804780000087800000C78000091
:100B1000107800001478000018780000F7B507007E
:100B2000012803D940494148FFF7D8FE404D6B6882
:100B3000002B4AD1FFF775FC6B680190002B56D152
:100B40003C4E33681A0043321278002A07D09B6863
:100B5000E0331B68DB0602D53748FFF771FFFFF76C
:100B6000EEFE80235B00984246D1380000F088F901
:100B7000002433681A0043321278002A17D0002864
:100B800015D09B68E0331B68DB0610D5FFF7CEFE5F
:100B9000294B212808D032681300B0331988072365
:100BA0004B43126A9B18DB681800FFF781FF01981E
:100BB000FFF73BFC002C0ED16B68002B03D0082103
:100BC0000120FFF7DBFE2000FEBD01210800FFF73A
:100BD000D5FE041EAED06B68002B03D0022101208D
:100BE000FFF7CCFE154B9C42EDD0154CEBE70421F2
:100BF0000120FFF7C3FEA3E7FFF7ACFE3368B43371
:100C00001B68C0180368002B0BDB04230D4A116915
:100C10000B431361012F02D030BF0020A8E720BF93
:100C2000FBE70020054CA4E7AF020000AC10001069
:100C3000B4040008C804000890040008050042003D
:100C4000FF00420000ED00E0C02280200649520073
:100C50008B58C0059B009B0803438B50802388580A
:100C60001B0603438B507047000026400B4B70B5AA
:100C70001B680500B4331B680C00C3181B68002BED
:100C80000ADA0B0C04D0B92105488900FFF726FECB
:100C90000020A4B26C6070BD0248FCE7C8040008E4
:100CA000E20F001001008A00036870B505000C0017
:100CB000002B0ADAC2600B0C03D005490548FFF788
:100CC0000DFE0020A4B2AC6070BD0348FCE7C04636
:100CD000CA020000E20F001001008A0070B5050092
:100CE0000C1E03D1A3210848FFF7F8FD074B1B6832
:100CF000B4331B68EB181B68002B03DA0020EB6889
:100D0000236070BD0248FCE70F110010C804000802
:100D100001008A00002243088B4274D303098B42EE
:100D20005FD3030A8B4244D3030B8B4228D3030CBB
:100D30008B420DD3FF22090212BA030C8B4202D35D
:100D40001212090265D0030B8B4219D300E0090A85
:100D5000C30B8B4201D3CB03C01A5241830B8B428E
:100D600001D38B03C01A5241430B8B4201D34B0377
:100D7000C01A5241030B8B4201D30B03C01A5241DC
:100D8000C30A8B4201D3CB02C01A5241830A8B4261
:100D900001D38B02C01A5241430A8B4201D34B024A
:100DA000C01A5241030A8B4201D30B02C01A5241AE
:100DB000CDD2C3098B4201D3CB01C01A5241830962
:100DC0008B4201D38B01C01A524143098B4201D39C
:100DD0004B01C01A524103098B4201D30B01C01AC7
:100DE0005241C3088B4201D3CB00C01A5241830841
:100DF0008B4201D38B00C01A524143088B4201D36E
:100E00004B00C01A5241411A00D2014652411046CD
:100E10007047FFE701B5002000F006F802BDC046AC
:100E20000029F7D076E770477047C04603001218D4
:100E3000934200D1704719700133F9E730B50500CE
:100E4000002A00D130BD0C78013A6B1C2C700131A6
:100E5000002C05D19A189A42F4D01C700133FAE79D
:100E60001D00EDE7F8B5C046F8BC08BC9E467047CB
:100E7000F8B5C046F8BC08BC9E46704700000000AC
:100E800001B40248844601BC604700BFA5000008C9
:100E9000030000000100000001000000000000004D
:100EA00005036000040000000100000000000000D5
:100EB000010000000604600008000000680400084B
:100EC00049010010000020400000244000000040C4
:100ED00000000000000023400000304000003140CE
:100EE00000009F4000002240000010400202020269
:100EF000020202020210101D800017007500FF039D
:100F00000602063604102000000000007FC000002A
:100F100000040000000000000019324B647D0080D6
:100F20004000080B100000000000FF012002001F1D
:100F300000800004FF081018001000140018001CA6
:100F40004044484C50000000081000000800000019
:100F50000400000004100000001200000421000042
:100F6000002100000016000040114002C4130013CD
:100F70008013A013200000001C000000433A2F55EE
:100F8000736572732F6F6875642F4D6F647573543A
:100F90006F6F6C626F785F322E302F6C6962726196
:100FA000726965732F70736F633673772D312E32CC
:100FB0002F636F6D706F6E656E74732F70736F63D8
:100FC0003670646C2F647269766572732F736F75F7
:100FD0007263652F63795F6970635F706970652EF6
:100FE0006300433A2F55736572732F6F6875642FD2
:100FF0004D6F647573546F6F6C626F785F322E3013
:101000002F6C69627261726965732F70736F6336DA
:1010100073772D312E322F636F6D706F6E656E7426
:10102000732F70736F633670646C2F6472697665AA
:1010300072732F696E636C7564652F63795F697075
:10104000635F6472762E6800433A2F55736572733E
:101050002F6F6875642F4D6F647573546F6F6C627A
:101060006F785F322E302F6C6962726172696573BE
:101070002F70736F633673772D312E322F636F6D40
:10108000706F6E656E74732F70736F633670646CFF
:101090002F647269766572732F736F757263652F33
:1010A00063795F737973696E742E6300433A2F55C9
:1010B000736572732F6F6875642F4D6F6475735409
:1010C0006F6F6C626F785F322E302F6C6962726165
:1010D000726965732F70736F633673772D312E329B
:1010E0002F636F6D706F6E656E74732F70736F63A7
:1010F0003670646C2F647269766572732F736F75C6
:101100007263652F63795F737973706D2E6300432B
:101110003A2F55736572732F6F6875642F4D6F6426
:101120007573546F6F6C626F785F322E302F6C69FD
:10113000627261726965732F70736F633673772D96
:10114000312E322F636F6D706F6E656E74732F70FA
:10115000736F633670646C2F647269766572732F77
:10116000736F757263652F63795F6970635F647213
:10117000762E630000000000000000100000000850
:101180008000000098110010800000081802000084
:10119000EC020008E001000000093D0000127A00A6
:1011A00000093D000000D00700093D00A00F00002D
:1011B00004000000A900001081000010F7B56E4D7A
:1011C00004002A68536800931300B033198807237A
:1011D0004B43126A9B181A68002AFCDA00F0E0F808
:1011E0002A681300B033198807234B43212800D005
:1011F00096E0116A5B180221D8680143D960D9686A
:10120000C9072FD508208446944460461600D96843
:10121000C06F019111688836081835680768491948
:101220000D683902FF273F040F40694689882D0A5F
:101230002D0639432943D960902103684F4D090198
:101240002B400B430360136830681B181868054077
:101250002943196013686246D26F9A18126832687F
:101260009B181B68444D2A681300B0331988072364
:101270004B43126A9B1800225A600423404A1169AA
:101280000B431361012C50D030BF2A681300B033D8
:10129000198807234B43126A9B181A68002AFCDA44
:1012A00000F07EF8212842D1296807220B00012492
:1012B000B0331B8800205A430B6AD318DD682542DF
:1012C0001CD0080008300D68C06F2C4E2818056827
:1012D000DB6835401B0C1B061B0C2B4303600B000B
:1012E000883318680B6818180B6A0568D318DB6810
:1012F0002E401B0E1B023343036020000B6A0221A9
:10130000D218D3688B43D3601B4B1A681300B033D9
:10131000198807234B43126A9B1800225A60FEBDAE
:10132000126A9B18174ADA609CE720BFADE70020DD
:10133000009BFC331B698342E6D1A320124B134967
:10134000134A144FC0000E681D5814680F6006271A
:101350001F503E20106010483E371F501F58002F6E
:10136000FCDA00980D4FFC3007610E60A321C90024
:101370005D5001201460C7E7C8040008FF00FFFFAC
:1013800000ED00E09004000800002640080126401F
:10139000040126401E1F00001C050000AAAAAAAADC
:1013A00001B40248844601BC604700BF2D0900100B
:1013B000000000000000000000000000000000002D
:1013C000000000000000000000000000000000001D
:1013D000000000000000000000000000000000000D
:1013E00000000000000000000000000000000000FD
:1013F00000000000000000000000000000000000ED
:1020000000F80F081F5400100D000000492F0010A9
:10201000512F0010592F0010612F001000000000F8
:10202000000000000000000000000000853D0010DE
:102030007D540010000000001D3E00102D3E0010D9
:102040007D5400107D5400107D5400107D5400100C
:102050007D5400107D5400107D5400107D540010FC
:102060007D5400107D5400107D5400107D540010EC
:102070007D5400107D5400107D5400107D540010DC
:1022E00010B5054C237833B9044B13B10448AFF350
:1022F00000800123237010BDF033000800000000AF
:102300008C0701100C4B43B10C480D4910B5AFF3CD
:1023100000800C48036823B910BD0A48036833B92C
:102320007047094B002BF7D0BDE810401847064B0B
:10233000002BF5D0184700BF000000008C070110EB
:10234000F4330008B02E000800000000154B002BED
:1023500008BF134B9D46A3F5803A00218B460F46DC
:102360001348144A121A08F011FE0F4B002B00D02C
:1023700098470E4B002B00D0984700200021040006
:102380000D000D48002802D00C4801F0DFF908F0DC
:10239000A9F92000290001F0E7FB01F053FB00BF81
:1023A0000000080000F80F0800000000C53A001007
:1023B000F0330008F05100084D3700100000000015
:1023C0000A4B1B6893F83C30834281BF800000F1C8
:1023D000804000F51810D0F8803383BF43F00043ED
:1023E000C0F8803300200248704700BFC451000885
:1023F00001004A000B4B1B6893F83C3083420FD915
:102400000F290DD8800000F1804000F51810D0F899
:10241000803323F00F031943C0F880130020704766
:1024200001487047C451000801004A000D4B1B6869
:1024300093F83C30834212D9032910D8800000F170
:10244000804000F518100901D0F8803301F0300108
:1024500023F030031943C0F880130020704702486E
:10246000704700BFC451000801004A00044B1B68BC
:102470001968D3F880208B5823F47F438B50704722
:10248000C4510008054B1B681968D3F880208B588D
:1024900023F07F4343F080738B507047C451000892
:1024A000044B1B681968D3F884208B5823F47F43AE
:1024B0008B507047C4510008064BD3F80C2542F0EE
:1024C0000042C3F80C25D3F80C2542F00102C3F8F2
:1024D0000C25704700002640FEE7000073B59621EA
:1024E000002007F093F807F033F870B907F022F8EE
:1024F000B24BD3F88021D2075EBFD3F80C2522F06F
:102500000042C3F80C25FFF7D7FF012007F0AEFB10
:10251000012007F0FFF9AA4A536C23F47F4343F4E8
:1025200068535364536CC3F307233A2B07D1536C9E
:1025300023F0005323F4685343F468535364002199
:10254000A04D0846FFF772FFFFF7AAFFFFF79AFFBB
:10255000FFF78CFF2B6893F83B10002956D1012020
:1025600006F056FB2B6893F83C3023B940F2AC716F
:10257000954806F0D1FF914BD3F8804314F00F0437
:102580000AD1204606F06EFB40F21113984203D1A7
:1025900001212046FFF72EFF884B8C4DD3F888256C
:1025A00022F0405242F00052C3F88825D3F880252B
:1025B00022F00042C3F88025D3F88C25002122F0B8
:1025C0000042C3F88C25084606F022FB00210024B7
:1025D0000846FFF70FFF23462246214600947C4819
:1025E00005F000F9224600942346754C78480121F5
:1025F00005F0F8F8226842F00802226023695B07C0
:1026000027D40DBB0520FFF767FF24E02B6893F864
:102610003B304E1E9E4215D2890001F1804404F5E4
:1026200018140120D4F8FC3523F0405343F0005334
:10263000C4F8FC3506F068FFD4F8FC3523F00043FD
:10264000C4F8FC35314688E7012006F05DFF013D06
:10265000D4E7002DD6D0594AD2F8003523F0030331
:10266000C2F80035FFF71CFFFFF70CFFFFF7FEFE77
:102670000021012006F0CCFA01210020FFF7BAFE6C
:102680000021084606F0C4FA0021022006F0C0FA34
:10269000504806F00BFB10B10420FFF71DFF4E4819
:1026A00006F0DEFB10B10420FFF716FF0121002029
:1026B000FFF7A0FE00210846FFF7B8FE0021012029
:1026C00006F0A6FA4549012006F02AFC10B10320C5
:1026D000FFF702FF42F21071012006F09BFC10B1DF
:1026E0000320FFF7F9FE3E49022006F019FC10B165
:1026F0000320FFF7F1FE42F21071022006F08AFC7F
:1027000010B10320FFF7E8FE00210220FFF772FE60
:1027100001210220FFF78AFE0220FFF751FE02216D
:102720000320FFF767FE00210320FFF77FFE032051
:10273000FFF746FE00210420FFF75CFE0021042085
:10274000FFF774FE0420FFF73BFE1C4BD3F8042573
:1027500022F00042C3F80425D3F8042522F4407285
:1027600022F00102C3F80425D3F8042522F47F02E5
:10277000C3F80425D3F8042542F00042C3F8042529
:10278000002007F0C3FB0E4A136823F4407343F4A0
:1027900080731360FFF790FE9021002006F036FF53
:1027A00002F080FE0F4803F077FB0F4803F074FB44
:1027B0000E4802B0BDE8704003F06EBB000026403A
:1027C00000002740C451000858EE001040420F009E
:1027D00000003140ACEE0010400D0300C9EE0010C7
:1027E000CEEE0010C0EE0010C3EE0010C6EE0010DA
:1027F0001FB503F04FFB0446FFF770FE24B90C48E9
:1028000007F0AEF818B90B4C204604B010BD0A4BC7
:1028100002934FF002130193013B0093074A0849CA
:1028200008484FF4003303F0FFFD0446ECE700BF17
:10283000E422000800000206030002000500020076
:102840000400020014340008264D80B5264F2E46A1
:102850002C68621C04D146222449254800F0A2FCC1
:10286000C4F307483A68B8F10E0FD4BF9269D2F8A2
:102870001880E4B2D8BF02EBC818082C04DD40F27F
:1028800013311C4806F048FED8F81030E340346895
:1028900003F00109631C01D13B22DDE7C4F30748C3
:1028A0003B68B8F10E0FD4BF9A69D3F81880E4B230
:1028B000D8BF02EBC818072C04DD40F231310D48B7
:1028C00006F02AFE012303FA04F4B9F1000F06D042
:1028D000C8F804404FF4FA7001F0DAF8B8E7C8F825
:1028E0000840F7E794340008C4510008D3EE001004
:1028F0000FEF00102EEF0010044800234FF00111DD
:1029000003600371437100F019B900BF94340008EB
:1029100008B5282001F09AF84FF0FF31031F00F1AD
:10292000240243F8041F9342FBD1014B186008BDF9
:102930009C3400086FF01500704703681B69184746
:1029400003689B69184703689B6A184700290CBFF6
:102950006FF0180000207047012070476FF01500DD
:1029600070476FF0150070477047036801221B69BC
:1029700000211847036800221B691146184730B52B
:102980004FF47A7440F271256143B1FBF5F189B2DD
:10299000032983809DF80C30837198BF0423018044
:1029A00098BF03800388B3F5804F88BF4FF48043FE
:1029B00004FB02F2B2FBF5F292B288BF0380032A55
:1029C00098BF0423428098BF43804388B3F5804F6B
:1029D00084BF4FF48043438030BD03680BB1084689
:1029E00018477047044B00221A605A609A601A61B7
:1029F000024ADA60704700BFA0340008DB290010EB
:102A00000346002210B503F8012B00F1110403F86E
:102A1000012BA342FBD1418210BD000008B542F654
:102A200002110248FFF7ECFF08BD00BFB4340008F4
:102A300007B500234FF48042009311460248FFF788
:102A40009EFF03B05DF804FBC8340008EFF3108369
:102A5000DB4372B6044A117829B9044903F0010333
:102A60000B70012313707047D1340008D034000874
:102A700008B5EFF31083DB0704D436220549064876
:102A800000F090FB054B00221A70054B1B7803B138
:102A900062B608BD7FEF0010A9EF0010D134000826
:102AA000D03400080C4B1B6870B5C0F307429D6919
:102AB0000E2AC4B2D8BF05EBC215072C0E4604DDA2
:102AC00040F23131054806F027FD0123A3400EB93D
:102AD0006B6070BDAB6070BDC45100082EEF00107C
:102AE00038B504460068431C0D4604D13B22094911
:102AF000094800F057FB111C18BF0121FFF7D2FF56
:102B00002046012102F03FFE29462046BDE838401C
:102B100002F036BED3EE00100FEF001070B50E4677
:102B20000446154602F00EFE013606D02A4620461F
:102B30000621BDE87040FFF7D3BF70BD0022FFF74C
:102B4000EDBF00002DE9F74FD0F804A09AF83A3015
:102B50000446002B46D103685B68984763681B6A8C
:102B600098423FD0DAF82030DAF80840CAF820005E
:102B7000A0EB0308DAF80C30314808EA0308844275
:102B800046464FF0000727D0DAE90A239AF83BB00F
:102B9000A8FB0089CDE900230025BBF1000F2BD055
:102BA0005A46404649460BF017FBDDE9002312EB7D
:102BB000080243EB090390465A46994606460F46DB
:102BC0000BF016FBB8EB000069EB0101A94208BF4E
:102BD000A0420AD2CAE90A01DAE90C23B6185F4119
:102BE000CAE90C6703B0BDE8F08F013647F1000772
:102BF000001B61EB0501EDE722462B4640464946A6
:102C00000BF092FF224606460F46404649462B46A9
:102C10000BF08AFFDDE9008918EB020849EB030994
:102C2000A94508BFA04502D2CAE90A89D4E70136FE
:102C300047F10007B8EB040869EB0509F4E700BFAA
:102C400040420F00824206D98A420BD9884294BF83
:102C5000002001207047884206D98A428CBF00209C
:102C60000120704701207047002070472DE9F14F87
:102C7000476897F83A300646002B60D197F839300C
:102C8000002B5CD1FFF75EFF75686B68002B59D095
:102C9000D5E90C89D3E90001894508BF804505D3F2
:102CA00033685B6901B0BDE8F04F1847D5E90623EA
:102CB000B0EB080861EB09094B4508BF42452C6998
:102CC00006D3AB68254A93420FD1444528BF4446FA
:102CD0002A6A3B6A1444EA681440A34221D140F2B4
:102CE0001B121F491F4800F05DFA95F83B20DFF8E2
:102CF00078A04FF0000B7AB1404649460BF078FAC5
:102D000010EB0A0041EB0B01144A00230BF00CFFFF
:102D1000844228BF0446DBE7A3FB080103FB09113B
:102D2000EEE7336820461B69984733685B6898472D
:102D300022460146386AFFF785FF0028B0D101B06E
:102D4000BDE8F08F3B69386AFA68184433681B693C
:102D5000104001B0BDE8F04F184700BF40420F00DF
:102D600018F0001038F000103F420F002DE9F04F2E
:102D7000436893F8382087B00546002A6CD193F851
:102D80003A30002B68D103681B6898472B68DB69D1
:102D90009847066836B9324932480096334632467B
:102DA00000F0E2FB1F23012202FA03F18E425FFAD8
:102DB00083FB02D0013BF7D19B46D0F804A0AAF1D7
:102DC00004031C2B05D9002300931A4626492748E3
:102DD000E6E7072716F1FF3007FA03F7244C4FF018
:102DE000000343F1FF313246C4FB07010BF09CFEA8
:102DF0006C682A6800232360636052680593CDE9FC
:102E00000201904720626C684FF000084FF0000903
:102E10005246C4E90A89A66084F83BB0012000212B
:102E20000BF0E6F9DDE90223C4E90623059B84F8EB
:102E3000393084F83A3001380123E06027612846B0
:102E4000C4E90C8984F83830FFF77CFE284607B0C7
:102E5000BDE8F04FFFF70ABF07B0BDE8F08F00BF35
:102E6000C3EF00100E010480DCEF001005010480A8
:102E700040420F0070B5044600F046FA2368DB6854
:102E80009847636893F83A201AB1BDE8704000F0A3
:102E900051BA012283F8392063685B68A3B12046E8
:102EA000FFF750FE65686E68D5E90C01D6E900238E
:102EB000994208BF904207D3F3686B602B68002BE0
:102EC000EAD0B0689847E7E76368002283F83920C2
:102ED0002046FFF7CBFED8E738B50446FFF746FF9C
:102EE00000F012FA2046FFF72DFE6368D3E90C4587
:102EF00000F020FA2046294638BD08B5FFF7ECFF60
:102F000008BD0000024B00221A7002F05BBE00BF39
:102F1000C83F000808B502F093FD024B01221A7069
:102F200008BD00BFC83F0008004870475CF00010B3
:102F3000024B1B680BB1024818477047002300087A
:102F40005CF00010002070474FF0100300F00CB848
:102F50004FF0200300F008B84FF0300300F004B841
:102F60004FF0400300F000B8EFF308804FF0040189
:102F700072460A4201D0EFF309809C46254B19683E
:102F800002680A60043142680A60043182680A609B
:102F90000431C2680A600431F0C147460F60043151
:102FA0004F460F60043157460F6004315F460F6093
:102FB000043102690A60083142690A600431826999
:102FC0000A600431C2690A600431034620334FF4B9
:102FD0000076324200D0043375464FF01006354279
:102FE00000D148330C46103C2360EFF309820A609D
:102FF0000431EFF308820A60043172460A6004313A
:10300000EFF314820A606046024B196800F07AF808
:10301000FEE7000088F00010F0B52C4C2C4F85B076
:103020000025264654F8252029463846013500F06B
:1030300051F90D2DF6D1A36C0293636C0193236CAF
:10304000009304F13401234C23480EC900F042F9E7
:103050002168224800F03EF9E16AA26AA36AA06AE8
:10306000256BE76B0297000C01950090C3F30723D3
:10307000D2B21B4800F02EF9A36A1D0603D5616B7E
:10308000184800F027F9A36A180403D5A16B164865
:1030900000F020F9F36C190712D5144800F01AF962
:1030A000336DDA070FD5124800F014F9F36C5B07A3
:1030B0004CBF1048104805B0BDE8F04000F00AB918
:1030C0000E4800F007F90E48EEE700BFCC3F0008BD
:1030D0001CF1001000ED00E02AF1001079F1001061
:1030E00087F10010D6F10010E4F10010F2F10010A9
:1030F00001F2001031F200103DF2001021F2001038
:103100000EF2001013B50446154800F0E3F8302C19
:1031100017D0402C1AD0202C1DD11248124C00F090
:10312000D9F8124800F0D6F8FFF776FF104800F003
:10313000D1F800230F4A0093D26B0F49204600F0CC
:1031400013FA0E480E4C00F0C5F8EAE70D480E4C95
:1031500000F0C0F8E5E70D480D4C00F0BBF8E0E7E3
:103160008CF00010B5F000103E01FF80E2F000107E
:10317000EDF00010CC3F00080CF10010C4F000107E
:103180003F01FF80CDF000104001FF80D8F000101B
:103190003D01FF8007F0E6BA07F046BF07F092B99D
:1031A00006F066BF07B50B460092014600220148B3
:1031B00000F0DAF94401FF80431C70B50E4604D1DB
:1031C0003B220E490E48FFF7EDFF0E4B1B68C0F384
:1031D00007429D690E2AC4B2D8BF05EBC215072C61
:1031E00004DD40F23131084806F096F9012000FA7A
:1031F00004F40EB96C6070BDAC6070BDD3EE00100D
:103200000FEF0010C45100082EEF001007B500F0BA
:103210007BF84FF001116846FFF790FC124D042433
:1032200001210098FFF7C8FF284600F021FC00218B
:103230000098FFF7C1FF284600F01AFC013CEFD1CF
:103240000A4E042401210098FFF7B6FF304600F033
:103250000FFC00210098FFF7AFFF304600F008FC9C
:10326000013CEFD1DBE700BFF0490200801A060005
:1032700010B5014604460022022000F011FB00F0C8
:1032800043F8204608F0DCF821460246022000F010
:1032900007FBBDE8104000F04DB8000000B5A3B03A
:1032A0000B460246842101A809F0F0FB832806D9C9
:1032B000074B1A681B79CDF883208DF887300028DA
:1032C00002DD01A8FFF7D4FF23B05DF804FB00BFC7
:1032D00049F200100FB407B504A951F8040B01918D
:1032E000FFF7DCFF03B05DF804EB04B07047EFF3C9
:1032F0001080C04300F001007047EFF305800030FC
:1033000018BF01207047000008B5FFF79FFB064A71
:103310001368591C04D13F2204490548FFF742FFB6
:103320000133136008BD00BF183500084EF20010CD
:1033300078F20010044A136823B1013B13600BB903
:10334000FFF796BB704700BF1835000808B50E4B55
:103350000121D3E84F2FC3E8401FD2B20028F8D193
:103360002AB1FFF7D1FFBFF34F8F20BFFDE7FFF773
:10337000C4FF08B1FFF74AFFFFF7B9FF0028F9D0F3
:10338000012000F05FFB00BF5C350008F0B5204D68
:103390008FB001AC35EA200528BF05460E4617461A
:1033A00000213422204607F0F1FD1A4B01955B699C
:1033B0000493DA6B05925A6B1B6B06920793029784
:1033C00003960894FFF7A0FF134A13680133012BFB
:1033D000136009D126460FCE104D0FC50FCE0FC575
:1033E0000FCE0FC533682B600FCC0D4D0FC50FCC22
:1033F0000FC50FCC0FC523682B600A4B1B6813B198
:10340000A5F130009847FFF795FF00200FB0F0BD01
:103410000101FF800C2400081C3500082835000835
:1034200060350008203500082DE9FF41374C0E4675
:103430002168C1F34173032B0CBF4D428DB2C1F320
:1034400007438046174632482A46FFF743FF6FF48A
:1034500098731D44132D0FD8DFE805F00A3E414450
:10346000474D4A500E0E0E0E0E0E0E0E0E0E0E5341
:10347000A1682848FFF72EFF4046FFF7F9FE616874
:103480002548FFF727FF4EB12448FFF7F1FE3046ED
:10349000FFF7EEFE39462248FFF71CFFA1682148DE
:1034A000FFF718FFE268E36951681F480293A369B8
:1034B000019363690093002908BF014623691B48F3
:1034C000FFF708FF21681A48FFF704FF194804B006
:1034D000BDE8F041FFF7FEBEA1681748CAE7A16842
:1034E0001648C7E7A1681648C4E7A1681548C1E7B0
:1034F000A1681548BEE7A1681448BBE7A168144855
:10350000B8E71448FFF7E6FEB6E700BF60350008ED
:10351000B3F2001004F30010ACF30010BDF3001080
:10352000C5F30010C9F30010A9F20010DDF300107C
:1035300035F400108AF400101AF300102AF300107A
:1035400039F300104CF3001060F3001074F3001016
:1035500083F3001099F3001000207047014B187896
:10356000C0B270472435000880B50E461F4611468C
:10357000084A0125D2E84F4FC2E8435FE4B23CB9A4
:103580007246FFF703FF029A39463046FFF74CFFB9
:10359000FFF7DCFE2435000807B5094AD2E85F3F93
:1035A0000133C2E8513F0029F8D19BB22BB91288F0
:1035B000044900930448FFF7D7FF03B05DF804FB0C
:1035C00094350008A4F400102301048007B50B4AC9
:1035D000D2E85F1F0139C2E8531F002BF8D14FF624
:1035E000FF7089B2814205D11288054900930548D0
:1035F000FFF7BAFF03B05DF804FB00BF9435000885
:10360000C6F400102401048008B5FFF77DFE064BC8
:103610001B889BB22BB902F09EF9BDE80840FFF76A
:1036200089BE02F095F9F8E7943500086FF01C00A8
:1036300070476FF0150070470120704700207047F9
:1036400070470000034B186818B14FF0FF3101F0CC
:103650000BBA704720400008024B186808B101F00F
:103660001BBA704720400008F8B5074E15460C46B7
:103670008F18BC4205D014F8011B304602F048F9FF
:10368000F7E72846F8BD00BF7850000838B58DB27E
:1036900015F0010405D0084802F04CF9041C18BFCD
:1036A0000124EB0605D5044802F04BF908B144F0BB
:1036B0001004204638BD00BF7850000810B50446FD
:1036C00007F048F8204610BD10B50C462AB1044852
:1036D00002F006F92070012010BD104610BD00BF99
:1036E0007850000838B51D46074B0360074B1B6830
:1036F000044633B9064802F087F82946044802F028
:10370000D9F8204638BD00BFECF400102C3E00086C
:10371000785000080020704700207047074A084989
:1037200013681844884289BF064B10600C224FF082
:10373000FF308CBF1A601846704700BF0424000891
:1037400000F40F08EC510008012070470120704779
:1037500008B500F00BFA08BD08B500F00FFA08BD77
:1037600010B50446037803F00303012B08D0FFF7DC
:1037700069FF237803F00302012A03D1FFF76CFFEE
:10378000002010BD2AB140F2E65204490448FFF778
:1037900009FD43F002032370012010BD5FF5001006
:1037A0008BF5001008B5037803F00302022A05D058
:1037B00040F2EF5206490748FFF7F4FC23F00303F9
:1037C00043F001030370BDE80840FFF745BF00BFA9
:1037D0005FF50010A9F500103F2870B5044630DCF5
:1037E000194D55F820305A1C13D1022811DCFFF76F
:1037F00093FF034658B92046FFF78CFF034630B9C4
:10380000124E3378BFF35B8FDB0704D5104B45F8BE
:103810002430184670BD3046FFF7A2FF0028F5D0CF
:103820004FF416534FF4A0220A490948FFF75AFFF4
:103830003046FFF7B7FF084A08490548FFF784FFFD
:10384000E4E70023E5E700BF0423000898350008FB
:103850009C35000801000500E022000841360010F8
:1038600038B50546FFF7B8FF0B4B002443F8254059
:1038700030B906F02DFC092303604FF0FF3038BD4E
:1038800003685B699847051E04DA06F021FC6D4267
:103890000560F2E7204638BD04230008FFF7E0BFCB
:1038A00038B50C461546FFF797FF38B906F010FCFF
:1038B000092303604FF0FF34204638BD03682146DA
:1038C000DB682A469847041EF6DA06F001FC6442DB
:1038D0000460EFE773B505460E461446FFF70DFD8D
:1038E00010B9FFF704FD88B9002300932A460C495C
:1038F0000C48FFF739FE07D0224631462846FFF72D
:10390000CFFF40EAE07009E0204607E0002CF2DA41
:1039100006F0DEFB162303604FF0FF3002B070BDEF
:103920001CF600102F01018038B50C461546FFF734
:1039300053FF38B906F0CCFB092303604FF0FF3486
:10394000204638BD036821469B682A469847041ED6
:10395000F6DA06F0BDFB64420460EFE773B5044697
:103960000E461546FFF7C9FC10B9FFF7C0FC70B949
:103970000023009322460B490B48FFF7F5FD2A462A
:103980003146204602B0BDE87040FFF7CDBF002DA4
:10399000F5DA06F09DFB162303604FF0FF3002B00E
:1039A00070BD00BFE0F500102F01018038B50C4656
:1039B0001546FFF711FF38B906F08AFB09230360AB
:1039C0004FF0FF34204638BD036821461B692A4664
:1039D0009847041EF6DA06F07BFB64420460EFE7CA
:1039E000FFF7E4BF10B5FFF7F7FE30B906F070FB44
:1039F000092303604FF0FF3010BD03689B699847AF
:103A0000041E04DA06F064FB64420460F2E700205E
:103A100010BD00000A4C08B523680546986806F0FA
:103A200089FC2368D86806F085FC0120FFF7DAFFDF
:103A30000220FFF7D7FF0DB1FFF7E8FBFEE700BF5D
:103A4000E824000808B5FFF7E5FF000013B50446B9
:103A500006F078FE034628B9009022460249034842
:103A6000FFF782FD02B010BD40F500101F0101807C
:103A700070B50446FFF758FA0646FFF73EFA0546CA
:103A80003046FFF73AFA401BA042F9D370BD000060
:103A900013B50446FFF731FC40B9FFF728FC28B105
:103AA000204602B0BDE8104001F0AABC00230093FC
:103AB0001A4602490248FFF757FD00BF56F60010AC
:103AC0000601018008B5094B094A1A60094B9B1A87
:103AD000094A1360094B0A4A1A600A4B9B1A0A4AA0
:103AE000136000F051F800F065F800BF0C360008D4
:103AF00000F40F0800F80F0808360008A435000885
:103B0000F051000800F40F08A03500080E4838B541
:103B10000E4B03600B251C240D4B4560C460836075
:103B200000F08AFF0B4B18600B480C4BC46080E818
:103B300028000B4B836000F07FFF0A4B1860BDE844
:103B4000384006F0CFBD00BFD83500089DF6001004
:103B5000EC350008E8350008A8350008AAF6001082
:103B6000BC350008B8350008FEF76EBE024B4FF0BA
:103B7000FF31186800F078BFE8350008014B18687D
:103B800000F08ABFE835000808B502F07FF8BDE80C
:103B9000084000F00CB8704708B5FFF7B7FFFFF713
:103BA000FAFFFFF7D9FCBDE80840FFF7DDBF00F0E2
:103BB00073BA000007B51748174B03600B23436027
:103BC0001C23164CC360164B8360164B23614FF4C5
:103BD000805363614423E360134BA3601823A36104
:103BE000124B236000F028FF114B22461860002181
:103BF000104801F035FB034628B90F4900902246D2
:103C00000E48FFF7B1FC00F05FFA002300931A465C
:103C10000B49F5E74C500008B4F600102850000896
:103C20005C5000082840000810360008C4F6001058
:103C300020400008993B0010C9F600101D010180CA
:103C4000E5F6001073B506460C461546FFF786FCF0
:103C500060B9A11D052996BF054B064953F82110EF
:103C60000023009332462846FFF77EFC02B070BD69
:103C7000FCF600101CF8001008B500F07BF80000FE
:103C800007B5411E02460023042923D8DFE801F0CE
:103C9000030A10161C001249124800930122002347
:103CA000FFF762FC0093022200230F490F48F7E759
:103CB0000093032200230E490E48F1E700930422EB
:103CC00000230D490D48EBE70093052200230C4922
:103CD0000C48E5E700930C490C480023E0E700BFDF
:103CE00014F700102501028035F70010260102802C
:103CF0005AF70010270102808FF700102801028078
:103D0000CAF700102A0102800AF8001000010280A0
:103D1000014A0146FFF796BF31010180014AFFF7D2
:103D200091BF00BF32010180014AFFF78BBF00BF86
:103D300033010180014AFFF785BF00BF38010180D0
:103D400010B501F0A5FA034B1B6813B1BDE8104094
:103D5000184710BD5436000808B5FFF7D5FAFFF72D
:103D60001BFCFFF751FCFFF731FCBDE80840FFF7F3
:103D7000E1BA000008B5024C23689847FCE700BF91
:103D8000082400081EF0040F0CBFEFF30880EFF3C7
:103D90000980816911F8021C91BB01B590E80F10F0
:103DA000E047BDE800508CE80300244B93E8060090
:103DB000914208BF704741B91EF0100F10D1204941
:103DC000086820F0010008600AE02CE9F00F1EF0FE
:103DD000100F08BF2CED108AC1F838C081F822E01E
:103DE0001A6092F82210906B61F0FF0E1EF0100F17
:103DF00008BFB0EC108AB0E8F00F80F30988704774
:103E0000104A13689942FAD801B552F821C00FC878
:103E1000E047BDE80050CCF80000704701B500F065
:103E20009BFEBDE80140EFF3098CBEE701B500F051
:103E300059FEBDE80140EFF3098CB6E720240008E5
:103E400034EF00E074F9001008B5014610B11320FA
:103E500001F074F9002008BD08B5EFF3058333B114
:103E60006FF0050000F012F86FF0050008BDEFF3E9
:103E70001083002BF4D1EFF31183002BF0D1DFF886
:103E800008C000DF08BD00BF493E00107047EFF3D7
:103E900010832BB9EFF31180003018BF0120704759
:103EA0000120704770B54D4C217A012900F08780C0
:103EB00031B14FF0FF30FFF72BFF4FF0FF3070BDF7
:103EC000474D9C2204F1080007F060F8EB68EE6AA9
:103ED000E3652B8AA4F85430296BAB682364304621
:103EE00000F008F908B1C4F880606E69A96930462D
:103EF00000F000F9002864D06667EE69296A304650
:103F000000F0F8F8002860D0A6676E6AA96A30460B
:103F100000F0F0F800285CD0E6676E6B3EB1F36805
:103F2000B2683168304600F051F9C4F88460AE6B75
:103F30003EB1F368B2683168304600F047F9C4F822
:103F40008860EE6B3EB1F368B2683168304600F0CD
:103F50003DF9C4F88C602E6C3EB1F368B2683168EC
:103F6000304600F033F9C4F890606E6C3EB1F368EF
:103F7000B2683168304600F029F9C4F89460AE6C3C
:103F80003EB1F368B2683168304600F01FF9C4F8FA
:103F90009860EE6C3EB1F368B2683168304600F06C
:103FA00015F9C4F89C602D6D3DB1EB68AA682968CD
:103FB000284600F00BF9C4F8A0500123237200201A
:103FC00070BDD4F88030636797E7D4F88030A3677A
:103FD0009BE7D4F88030E3679FE700BF0C2400081C
:103FE0000CF9001038B5264C237A012B06D06FF05F
:103FF0000600FFF78DFE4FF0FF3038BD01F010F9DD
:1040000010B94FF0FF30F4E71E4A1F4D1F49686892
:10401000FF2382F8223092F82230D26863F0FF0347
:10402000DB4314BFB3FA83F32023C3F12003C2F3AD
:104030000222934298BF531CFE2202FA03F3114A54
:10404000DBB2D37701F09CF90028DAD101F0D4F982
:10405000206101F0B5F90E4800F0C0FE00F024FF29
:104060002B6813F0010F4FF0020304D083F3148880
:104070002372002038BD032282F31488F8E700BFC2
:104080000C24000800ED00E00CF900102D3E00109B
:10409000282400087047000008B5FFF7FBFFEFF386
:1040A000058333B16FF00500FFF732FE6FF00500B6
:1040B00008BDFFF7ECFE0028F4D1DFF808C000DFF0
:1040C00008BD00BFA53E001008B5EFF3058333B16E
:1040D0006FF00500FFF71CFE6FF0050008BDFFF74D
:1040E000D6FE0028F4D1DFF808C000DF08BD00BF0D
:1040F000E53F001010B5A8B140EA010313F0070333
:104100000DD117290DD9016008390C1810228460CF
:1041100042600B5081684A60C360012010BD0020DE
:1041200010BD184610BD70B5B0B100292ED032F0C8
:1041300003032BD10F3121F0070100F108052E6890
:104140006C68731B24F003041B1B994205D9336868
:104150003546002BF3D1184670BD446803680C4403
:1041600044601844083843689C4288BF44606B68C8
:1041700011431BB9696005F1080070BD23F003030A
:10418000E818EE5041602860083070BD002070BD16
:1041900010B5D0B1C1B1A1F1080400F108030022AB
:1041A000A34209D1596821F003044168091B416009
:1041B0003AB95A60012010BD19681A4621B10B4660
:1041C000EEE71B681360F5E7084610BD30B5C0B1D7
:1041D00089B1C2B1CBB10024446002FB01F41D19C6
:1041E00001608260C360436105611846013904D1F2
:1041F000A21A99500121084630BD8518056028464D
:10420000F4E70146F7E71146F5E71946F3E710B57D
:104210000346B0B100F1140252E8000F10B9BFF329
:104220002F8F04E0016842E8001404B1F4E740B1C4
:10423000043353E8002F511C43E8001404B1F8E79D
:1042400010BD10BD30B5F0B1C3688B421BD80369F7
:10425000994218D200F114031A680A60BFF35F8F05
:1042600053E8002F0C689442F6D143E8001505B1DD
:10427000F2E7043050E8003F5A1E40E8002101B147
:10428000F8E7002030BD6FF0030030BDEFF310837E
:104290002BB9EFF31180003018BF012070470120C7
:1042A0007047036B30B5E3B1CD780024DA78AA42C9
:1042B0000FD31A464A608C608AB19160A4B16160E4
:1042C000283050E8003F5A1C40E8002101B1F8E7CF
:1042D00030BD5A681C46002AECD01346E6E7C1629E
:1042E000ECE74B608B60C1620163E9E74B688A6869
:1042F00023B19A608A681AB153607047C262F9E7C5
:1043000003637047F8B58678044696B3C5680146DE
:104310000026284605F10C07FFF7E8FF2670214626
:104320003846FFF78FFFAB68002B48D03846FFF7C1
:104330006EFF0446002842D0284600F04FFD32466A
:104340000746314600F0E6FD384600F08FFD6A6A08
:104350008168074604F10C0006F01AFDF92323706A
:10436000A670FB68E37021462846BDE8F840FFF7D9
:1043700098BF8568AB68002BF5D05B78832BF2D1B2
:10438000284600F02BFD32463146074600F0C2FDBC
:10439000384600F06BFD06466A6A806804F10C013D
:1043A00006F0F6FCF3680BB1E2781A700023237074
:1043B000214605F10C00BDE8F840FFF743BFF8BD0A
:1043C0002DE9F74F8946074600B131B96FF0030177
:1043D0000020FFF7AFFC00207BE0CD1C25F003059B
:1043E0000C3514BFB5FA85F12021B0FA80F30B44E7
:1043F0001F2BEBDD05FB00FAF2B19468D2F80080C8
:10440000166953693CB1A10702D1D268332A05D895
:104410006FF00801DCE7D268002AF9D13EB116F04E
:10442000030B01D19A4557D96FF00901D0E7002B52
:10443000FAD11CB19B460CE090461646284BD3F8A7
:10444000A000E0B1FFF7E3FE0446A8B14FF0010B76
:104450003EBB234B0193D86F00225146FFF763FE0A
:10446000019B0646B8B9BBF1000F05D0D3F8A000F8
:10447000214658B1FFF7E6FE6FF00401A8E70122DC
:104480003421D3F88000FFF74EFEDDE7D3F880003B
:10449000FFF77EFEF0E75246002106F077FD4BF075
:1044A000020BFA2323700023A360A362E362236359
:1044B0002A46334684F802B0C4F80480C4F8249035
:1044C000394604F10C00FFF781FE054B054A1A67D7
:1044D000204603B0BDE8F08F002CE2D1AEE700BF6C
:1044E0000C240008054300102DE9F0410C46174646
:1044F0009846054618B10378FA2B00D141B92846F1
:104500006FF00301FFF716FC6FF00300BDE8F081C8
:104510008368C3B15B78832B15D100F05FFC012267
:104520000646002100F0F6FC304600F09FFC0646EF
:104530006A6A8068214606F02BFCF06858B3077061
:104540000020BDE8F08105F10C00FFF760FE064693
:1045500070B121466A6A0C3006F01AFC0024F92377
:104560003370B470F77031462846FFF79AFEE7E7DC
:10457000B8F1000F11D04146932000F0DFFD40B1AB
:10458000084B2846596900F017FCEFF309839C603B
:10459000DF606FF00100BDE8F0816FF00200BDE860
:1045A000F08100BF0C24000810B500F1280353E887
:1045B000002F12B9BFF32F8F04E0511E43E80014FF
:1045C00004B1F4E70AB9002010BDC06A0123002835
:1045D000F9D0821CD2E84F1FC2E8443F04B1F9E78A
:1045E00011F0FF0F01D08068F1E710BD2DE9F04117
:1045F0000F4614469846054618B10378FA2B00D1A9
:1046000041B928466FF00301FFF794FB6FF00300F8
:10461000BDE8F081FFF7C8FF064600283BD0014601
:104620002846FFF763FE6A6A06F10C01384606F079
:10463000AFFB0CB1F3782370002405F10C07347044
:1046400031463846FFF7FEFDAB6813B90020BDE8E0
:10465000F0813846FFF7DBFD06460028F6D02846F5
:1046600000F0BCFB21460746012200F053FC38460F
:1046700000F0FCFB6A6A8168074606F10C0006F050
:1046800087FBF9233370B470FB68F370314628461A
:10469000FFF707FEDAE7B8F1000F11D0414683209B
:1046A00000F04CFD40B1084B2846596900F084FBEE
:1046B000EFF309839F60DC606FF00100BDE8F081DB
:1046C0006FF00200BDE8F0810C24000810B504462C
:1046D000EFF3058333B16FF005010020FFF72AFBEC
:1046E000002010BDFFF7D2FD0028F4D12046DFF8EE
:1046F00008C000DF10BD00BFC14300102DE9F0412C
:1047000006460F4690461C46EFF305834BB19EB913
:1047100030466FF00301FFF70DFB6FF00300BDE8BB
:10472000F081FFF7B3FD0028F1D130462346DFF8D2
:1047300050C000DFBDE8F0813378FA2BE8D1002FBC
:10474000E6D0002CE4D106F10C00FFF760FD054631
:1047500088B1726A39460C3006F01AFBF9232846F4
:104760002B70AC7085F803806F60AE6000F03CFA8F
:104770002046BDE8F0816FF00200BDE8F08100BF87
:10478000E9440010F8B504460F4616461D46EFF3FF
:10479000058343B18CB920466FF00301FFF7CAFAD5
:1047A0006FF00300F8BDFFF771FD0028F2D120463D
:1047B0002B46DFF844C000DFF8BD2378FA2BEAD19E
:1047C000002FE8D0002DE6D12046FFF7EDFE05468C
:1047D00070B100F10C01626A384606F0D9FA0EB1E8
:1047E000EB7833702846EC6000F0FEF90020F8BD4D
:1047F0006FF00200F8BD00BFED450010EFF310832D
:104800002BB9EFF31180003018BF01207047012051
:104810007047000070B5002835D0846890E86000CB
:1048200064B114F0030302D1C2681B2A19D86FF0D7
:1048300008010020FFF778FA002070BDC368002B44
:10484000F5D1124BD3F8940030B901221C21D3F8D2
:104850008000FFF768FC01E0FFF7D9FC044668B16F
:104860000123F522A37000232270E6706560A36027
:10487000E360236163612376204670BD6FF004011D
:10488000FFF752FAF8E705460646DAE70C24000877
:10489000284B70B55D6904460E4635B96FF00701C7
:1048A000FFF742FA4FF0FF3070BD10B10378F52BDF
:1048B00007D020466FF00301FFF736FA6FF00300D0
:1048C00070BD037E53B9EA6AC5604261036102B1FB
:1048D0001061EC6201232376002070BDC278D107FD
:1048E0000DD5C168A9420AD1FF2B06D16FF00F0187
:1048F000FFF71AFA6FF0020070BD0133EBE7002EEC
:10490000F8D093070AD5E06895F9203090F9202077
:104910009A4203DA80F8203000F073FA31465320CF
:1049200000F00CFC18B12946204600F045FA6FF063
:10493000010070BD0C24000838B52E4B5A6904469E
:1049400032B96FF00701FFF7EFF94FF0FF3038BDD4
:1049500010B10378F52B07D020466FF00301FFF765
:10496000E3F96FF0030038BD037E33B96FF00E0139
:10497000FFF7DAF96FF0020038BDC168914202D04A
:104980006FF00D01F4E7013BDBB2037623BB436913
:104990000BB101691961216901B34B61E3789B0790
:1049A00005D592F92110D36AD3B982F82010A368F3
:1049B0007BB1204600F012FA00220546114600F0B5
:1049C000A9FAEB6A6361002323610123E560EC62CD
:1049D0002376002000F072FA002038BDD362DDE7B4
:1049E000986820B190F920008142B8BF01465B6908
:1049F000DAE700BF0C2400082DE9F0410446002648
:104A000001270CB9BDE8F081E378D4F814801B07C6
:104A100010D5A36826766BB1204600F0DFF900229E
:104A20000546114600F076FAEB6AE560636126619F
:104A3000EC6227764446E4E708B50246EFF30583C7
:104A400033B16FF005010020FFF76EF9002008BDBB
:104A5000FFF7D4FE0028F4D11046DFF808C000DFCD
:104A600008BD00BF1548001008B50246EFF30583E6
:104A70003BB110466FF00501FFF756F96FF00500E6
:104A800008BDFFF7BBFE0028F3D11046DFF804C0D5
:104A900000DF08BD9148001008B50246EFF305831A
:104AA0003BB110466FF00501FFF73EF96FF00500CE
:104AB00008BDFFF7A3FE0028F3D11046DFF804C0BD
:104AC00000DF08BD3949001010B5D0E85F3F5A1C1F
:104AD000914200D80022C0E8542F04B1F5E798B203
:104AE00010BD000038B51B4C00F080FCE3680133BA
:104AF000E360236D03B1984700F09EF9002000F0B9
:104B0000DDF9236C2BB1A26BA1698A4202D0A163AB
:104B1000E36338BDE36B0BB1013BE363E36B002B55
:104B2000F7D1237A022BF4D1656A002DF1D095F9E3
:104B3000201092F920309942EBD1284600F057F925
:104B4000A06B00F071F9284600F0AEF9A563236C64
:104B5000DEE700BF0C24000870B5224C04F15605B6
:104B600004F15A06B4F85410D5E85F3F13B9BFF307
:104B70002F8F04E05A1EC5E8502F00B1F4E79BB216
:104B80005BB33046FFF7A0FFE36D53F8200020B37E
:104B90000378F13B082BE5D801A252F823F000BFBF
:104BA000C54B0010654B0010CB4B0010654B00103F
:104BB000654B0010CF4B0010D34B0010654B00101D
:104BC000D74B0010236E9847CCE7636EFBE7A36ECC
:104BD000F9E7E36EF7E7236FF5E70020BDE87040E3
:104BE00000F06CB90C24000870B5164C0546B4F8FA
:104BF000541004F15602D2E85F3F994202D8BFF345
:104C00002F8F04E0581CC2E8560F06B1F3E79BB2A1
:104C1000994210D904F15800FFF756FFE36D43F8AD
:104C20002050637A23B9084B4FF080525A6070BD10
:104C30000123A37270BD29460220BDE87040FFF732
:104C40001FB800BF0C24000800ED00E0EFF3108354
:104C50002BB9EFF31180003018BF012070470120FD
:104C60007047000010B50123094A437090F92010E5
:104C7000536A1C321BB193F920408C4205DCC260A0
:104C80008360906003B1D86010BD1A469B68F1E75D
:104C90000C240008014B5869704700BF0C24000821
:104CA00008B5FFF74DF8DFF810C000DF4FF0FF3117
:104CB0000020FFF733F8FEE7BD51001012F0020F9D
:104CC00010B502F0010222D100F1280382B153E8AD
:104CD000000F00EA01028A4203D0BFF32F8F0020A9
:104CE00005E020EA010243E8002404B1EFE710BD2B
:104CF00053E8000F084203D1BFF32F8F002005E0D7
:104D000020EA010243E8002404B1F1E710BD806A03
:104D100001EA00031AB1994218BF002010BD002B10
:104D200008BF002010BD000010B5C4694169631CB4
:104D300003690AD103B1596142691AB113610023B1
:104D4000436110BD064A136310BD1BB1DA69596196
:104D50002244DA614269002AF0D1014AD36210BDCF
:104D60000C24000810B500234370037083789A0761
:104D7000044608D513F0100F016B0E4B0FD0D3F87B
:104D80008400FFF75FFAA378DB0712D5094BD3F84D
:104D90008800214638B1BDE81040FFF753BA586F7C
:104DA000FFF7F6F9EFE7D3F88000BDE81040FFF712
:104DB000EFB910BD0C24000810B591F920208368CC
:104DC0001BB193F92040944205DAC8608B60816082
:104DD00003B1D96010BD18469B68F1E783689A68F3
:104DE000826002B1D0600022DA6018467047C36862
:104DF00033B182689A60826802B1D3600023C360D5
:104E0000704710B50146044664B12378F12B07D0F2
:104E10000846FFF7ECFF2046BDE81040FFF7CCBF87
:104E2000E468F1E710BD000001230146437001482A
:104E3000FFF7C2BF2824000838B50B4DEC6A94B1C7
:104E4000E369013BE36173B92046FFF7D0FF2046D9
:104E5000FFF7EAFF246924B1E369002BF4D00023B3
:104E60006361EC6238BD38BD0C24000890F8223034
:104E7000826B13F0100F0CBF60202020104470478D
:104E8000074B596951B10B6B8A6B934203D21A6875
:104E9000044B9A4202D00120FEF7F2BE704700BFD9
:104EA0000C240008A52E5AE208B502234370024BD9
:104EB0009861FFF7E5FF08BD0C24000810B5144BFE
:104EC00004461A7A5969A0B9022A1FD15C6AECB16A
:104ED00094F9202091F920309A4217DD2046FFF7FF
:104EE00086FF0846FFF7BEFE2046BDE81040FFF7EC
:104EF000DBBF022A05D190F9202091F920309A4297
:104F0000EFDC2046BDE81040FFF78EBF10BD00BFAC
:104F10000C24000838B504461546FFF7A7FF0160CA
:104F20002046FFF701FF20461DB1BDE83840FFF7DE
:104F3000C5BFBDE83840FFF777BF10B54378332BC6
:104F400004460CD1416A90F82320FFF7B7FE0146D2
:104F500028B120460022BDE81040FFF7DBBF10BD9E
:104F60002DE9F04F85B08246029128B96FF0030118
:104F7000FEF7D4FE0020B8E0002A48D094681669F5
:104F80005569976944B1A30702D1D368432B06D86A
:104F90006FF008010020EBE7D368002BF8D13EB199
:104FA000700702D1002D40F0B9806FF00A01F1E7DF
:104FB0002FB17B1E372B03D96FF00B01EAE71827BF
:104FC0001DB16907F1D1472DEFD95368D2F8009090
:104FD00001934CBB544BD3F88800F0B1FFF717F99D
:104FE0000446002800F097804FF00108002E36D1CB
:104FF000DFF834B1DDB94D4ADBF88400556DB0B14E
:10500000FFF705F9D8B148F01008064623E09146AD
:105010001827154616460192DCE701224421D3F8F1
:105020008000FFF780F8DBE74FF00008DEE732464C
:105030002946DBF87400FFF776F80028E5D1B8F1CF
:10504000000F5CD0DBF88820002A51D021461046A2
:10505000FFF7F8F8002448F00208002C5BD0F12399
:105060002370012363709DF80430E3700023A36074
:10507000E36023616361A361E36184F823306362C9
:10508000A362E362A5F1400333447FB2A363FD2230
:10509000274B84F80280C4F8049084F8207084F8C8
:1050A000217084F8222026636563C4F83CA0336035
:1050B0001E4B1B685B0724D4A36B00201A1F03F14F
:1050C000300142F8040F9142FBD11A4A5A634FF063
:1050D0008072DA63029A1A62C3F838A0124B164A39
:1050E0001A662046FFF7EAFE204605B0BDE8F08FBD
:1050F0002146DBF880000392FFF74AF8AAE744460E
:10510000A9E7AD08113D4FF0CC33002DD4D046F8BF
:10511000043F013DF9E76FF004013BE7002F7FF406
:1051200048AF18274DE700BF0C2400080CF9001009
:10513000A52E5AE2A14C00103B4F001038B51D4C73
:10514000237A022B34D1636A002B31D063694A1C65
:10515000587015D1226B00216AB94FF0FF30D86129
:1051600059611A6151B10B611348FFF737FEFFF720
:105170009BFE012038BD11461269EDE72363F3E77A
:10518000E26A002012B1D569A9420BD2D9615861F7
:105190001A6158B10361002AE6D0D0695361411AFF
:1051A000D161E1E71046491B1269EBE7E362F2E7E0
:1051B000002038BD0C2400082824000838B5164DFE
:1051C0002B7A022B27D16B6A2BB36C69E06AFFF74D
:1051D00013FCA06918B100221146FFF79BFEEFF304
:1051E00009830E48A363FFF7F9FDFFF75DFE002377
:1051F0006B61E378DB0701D5A36923B12046BDE8E5
:105200003840FFF7AFBD04226270E3606B6BA360B0
:1052100003B1DC606C6338BD0C240008282400084E
:1052200038B50B4C0B48A26D0B4D0021FFF798FED3
:10523000636EA8624BB1E26D08480021FFF790FE53
:10524000A864003018BF012038BD012038BD00BF60
:105250000CF90010793C00100C2400084553001094
:1052600010B50446EFF3058333B16FF0050100205C
:10527000FEF754FD002010BDFFF7E8FC0028F4D134
:105280002046DFF808C000DF10BD00BF614F0010EE
:1052900008B5EFF3058313B1054B586908BDFFF757
:1052A000D5FC0028F8D1DFF80CC000DF08BD00BF36
:1052B0000C240008954C00100C4A536C30B50024A7
:1052C00013B11D69A9420AD201618460C3601BB198
:1052D0001D699860691A19612CB1E06030BD1C46E7
:1052E000491BDB68ECE7506430BD00BF0C240008AC
:1052F00070B5134D6C6C04B32369013B2361012627
:105300002369D3B9E3680BB1A2689A606B64002388
:105310001A4604F11801E86CFFF7F0F918B12146BC
:105320000320FEF7ADFCE378012B07D1616920462D
:10533000FFF7C2FF6C6C002CE2D170BD6670F9E71C
:105340000C2400080B4B0C4C07B51A6E586E082144
:10535000FFF7BCF9094AE06422654FF0FF330022F1
:105360006946E06CFFF70EFA0028F6D10198009B21
:105370009847F2E70CF900100C240008F1520010D5
:10538000A8B10C4B1B68B3FBF0F00138B0F1807F83
:105390000DD2094BFF2283F82320A3F54F63062289
:1053A0001A60586000209860044B187070474FF0E6
:1053B000FF307047B024000800ED00E0A83C000872
:1053C000074B1A782AB100221A70064B4FF0806200
:1053D0005A60054A136843F001031360704700BF29
:1053E000A83C000800ED00E010E000E0014B1B6865
:1053F000704700BF10E000E04FF0FF307047000042
:1054000008B5FEF729FD20B1C12202490248FDF787
:10541000C9FE08BDFAF90010EBF900107047FFF75C
:10542000FDFF72B60F4C104DAC4209DA216862687C
:10543000A368043BA2BFC858D050FAE70C34F3E786
:105440000A490B4A00209142BCBF41F8040BFAE71D
:10545000084809490860BFF34F8F00F007F9FCF7CF
:1054600075FFFEE798070110B0070110F033000840
:10547000F05100080020000808ED00E0FEE7FEE71C
:1054800000B504207146084202D0EFF3098001E024
:10549000EFF30880043004F069F8FEE7012002F021
:1054A000A3BB7047534BD3F8801301F00F018A0060
:1054B00002F1804202F5181210B5D2F8403313F011
:1054C00007036AD0042B5DD04B4B002967D1494AB2
:1054D000D2F89005D2F88815D2F8884514F0405FCC
:1054E000C1F3017105D0D2F88825C2F30172012AF7
:1054F00001D1C40701D4032913D13E4AD2F8801543
:10550000D2F88405D2F88025C0F30C00B3FBF0F08C
:10551000C1F3110303FB00F1C2F300630133B1FBDC
:10552000F3F3344AD2F88023C2F30112D340334A52
:1055300041F208001360324A916812583148120E45
:105540000132B3FBF2F20260C1F307220132B3FB76
:10555000F2F32D4A2D4913602D4A136003F574228E
:1055600002F23F22B2FBF1F22A4903F2E7330A705A
:105570004FF47A72B3FBF2F3274A1360274ADB0336
:10558000136010BDD2F8003303F01F03112B0CBFC2
:105590004FF400434FF4FA4397E7214B95E7013965
:1055A0000129BED8D2F83C46D2F8FC15D2F8FC0549
:1055B00010F0405FC1F3017105D0D2F8FC05C0F3D3
:1055C0000170012801D1E00701D40329A9D1D2F843
:1055D000FC15D2F8FC45D2F8FC0501F07F025343DC
:1055E000C4F30422B3FBF2F3C0F30442B3FBF2F3BF
:1055F00097E700BF0000264000366E01B424000883
:1056000000002040B8240008B024000840420F00E9
:10561000C0240008C8240008C4240008BC240008D2
:1056200000127A0008B50D4801F0FEFFFFF739FFC0
:10563000FFF738FF00221146032002F037FB08482D
:1056400002F068F9074B1B6893F84D3023B1064808
:10565000BDE8084002F0CEB908BD00BFC00001108F
:10566000AC3C0008C451000890FA001008B501F0E5
:10567000D4FF074AD2F8883043F47003C2F8883068
:10568000BFF34F8FBFF36F8FBDE8084001F0C9BF74
:1056900000ED00E00C4B1B6870B5C0F307429D693C
:1056A0000E2AC4B2D8BF05EBC215072C0E4604DD86
:1056B00040F23131054803F02FFF0123A3400EB91A
:1056C0006B6070BDAB6070BDC45100082EEF001060
:1056D00013B504460068411C04D11649222216481D
:1056E000FDF760FD2179627900F014FB014650B1AD
:1056F00080B2002340F0004000931A460F4940F466
:105700005020FDF731FF6379022B0BD12068421C3A
:1057100002D13B220A49E2E7012102B0BDE8104074
:10572000FFF7B8BF032B03D12068431CF5D1F0E786
:1057300002B010BDC4FA00100FEF001000FB001003
:10574000D3EE001003464A1C13B50846196013D067
:1057500000241C715C7122462346214600F0C6FAE3
:1057600050B180B240F000400094234622460349E5
:1057700040F45020FDF7F8FE02B010BD1CFB0010F5
:105780004171FFF7A5BF31B943790171062B00D1F3
:105790004171FFF79DBF0129FBD1022303714379BA
:1057A000012B9CBF06234371F3E770B5D0F8EC30B2
:1057B00004460D46A4F8E81023B1B0F8E4201142E5
:1057C00000D09847D4F8F03023B1B4F8E620154261
:1057D00000D09847D4F8DC60AEB1B4F8E4302B4088
:1057E000802B03D10021D4F8E000B047B4F8E630B4
:1057F0001D40B5F5807F06D1D4F8E0003346012185
:10580000BDE87040184770BD244B9942F7B5174664
:1058100004460D464FF48C7208D1214B1B682BB106
:10582000204903B0BDE8F04005F04CBB0021204604
:1058300005F0ACFB00264FF0FF33C4F8D030C4F8BD
:10584000D430C4F8CC50C4F8C870009633463A46F9
:105850002946204601F08CFC30B100963346324692
:1058600011491248FDF780FE22461149204601F0F9
:1058700025FE012307226C21204601F033FE074B51
:105880009D4208D14FF48C722146064805F01AFB60
:10589000034B01221A6003B0F0BD00BF01000500F8
:1058A0002C3E0008785000084BFB00100F010980C7
:1058B000AB57001037B5002204460D4601F006FB39
:1058C00030B1002300931A4603490448FDF74CFE0B
:1058D000C4F8D85003B030BD33FB00100F0109806D
:1058E0001FB500220DF10F0101F0A4FD30B100231E
:1058F00000931A4604490548FDF736FE9DF80F004F
:1059000005B05DF804FB00BF3FFB00101B010980E0
:1059100007B501F0ABFD30B1002300931A460349EF
:105920000348FDF721FE03B05DF804FB5BFB0010AC
:105930001C01098008B501F0A4FD003018BF01204A
:1059400008BD08B501F0ACFD003018BF012008BD4E
:10595000002004F0D3B8002004F04CBAFDF7E8BAF8
:10596000082906D1044B99791A6801238B4093606A
:1059700093610020704700BF443E000808B5084B03
:105980001B7823B9692207490748FDF70BFC074A32
:105990001368927903EB8213D3F8080108BD00BFA6
:1059A000383E0008E5FB001026FC0010443E0008CD
:1059B00007B5104A1278034622B96F220E490F48E4
:1059C000FDF7F0FB0E4908688A7900EB8212C2F8F5
:1059D0000C31D2F8383153B90323C2F83031D2F840
:1059E0003021012200920431022200F093FE03B024
:1059F0005DF804FB383E0008E5FB001026FC0010B3
:105A0000443E00080A4B1B7807B523B9792209499F
:105A10000948FDF7C7FB094800230093011D032334
:105A20000222006800F076FE03B05DF804FB00BFC0
:105A3000383E0008E5FB001026FC0010443E00083C
:105A40002DE9F0414C4D2E7886B0002E40F08F802D
:105A50004A4C32464FF0FF31204600F0F5FF30B19E
:105A600047490096334632464648FDF77DFD464B92
:105A70001968464B994204D83D2245494548FDF7EF
:105A800091FB454A6079454BB1FBF3F3B1FBF3F170
:105A90001160434901EB0011207B89685160013B93
:105AA000617B68BB07290ED8FF2B0CD83D480068E6
:105AB000B0F87060806806EB8106315821F47F41B0
:105AC00041EA0323335052682C48012606FA02F2B9
:105AD000013A4FF0000802A98DF808608DF809809E
:105AE0008DF80A6003920492CDF8148000F0D6FE7F
:105AF0000746D8B1CDF80080434642462A49B3E76D
:105B00000128E0D10F29DED826480068B0F872607D
:105B1000876806EB81062549F05901EA032320F442
:105B20007F0121F47F410B43F351CCE7A279236835
:105B30001F4903EB82130322C3F8302102461D489C
:105B4000D3F8303100F0A6FD0C4801F021F820B167
:105B500000973B463A46184986E7184803F000FF8D
:105B6000034618B90090024615497DE72E70FFF7ED
:105B700049FF06B0BDE8F081383E0008443E000809
:105B800078FB00100F010880B82400083F420F0086
:105B9000E5FB001089FB0010303E000840420F007A
:105BA00038FD0010C4510008A5FB001000FFFF00E5
:105BB0005D590010483E0008B9FB0010CC240008D5
:105BC000CBFB00100E4B1A7813B5BAB100241C7031
:105BD000FFF718FF0B4803F0FFFE0B4800F0E1FF52
:105BE00030B100942346224608490948FDF7BCFC21
:105BF000054802B0BDE8104000F0F6BD02B010BD8F
:105C0000383E0008CC240008443E000867FB001022
:105C10000F0108807047000008B50D4B1B7823B9B1
:105C200084220C490C48FDF7BDFA0C4A5379002B2D
:105C300093790CBF7B2183210B445A09012103F086
:105C40001F0301FA03F34032054941F8223008BD31
:105C5000383E0008E5FB001026FC0010443E00081A
:105C600000E100E008B5054B1B7823B98E220449FA
:105C70000448FDF797FA044808BD00BF383E000805
:105C8000E5FB001026FC0010303E000808B5FFF7C9
:105C9000C9FCFCF7ADFDFFF7D3FE62B608BD0728CF
:105CA00015D8DFE800F01515040A0C0E10120A20B2
:105CB000012908BF00F0070070470B20F8E70C200F
:105CC000F6E70D20F4E70E20F2E70F20F0E701BE23
:105CD0000820EDE7044B1B680E289ABF9B6903EB75
:105CE000C0109869704700BFC451000873B50546DD
:105CF00010461E46FFF7D3FF00240246C5F30740B7
:105D0000FFF7E8FF00943346E9B201F06BFD20464F
:105D100002B070BD70B504461046FFF7C0FF0546DF
:105D2000C4F30740FFF7D6FFE4B2072C064604DDB4
:105D300040F2CE310E4803F0EFFB35F00F0304D0F4
:105D400040F2CF310A4803F0E7FB0A4B1B6893F897
:105D50007910A40073580F22A24005F00F0523EA22
:105D6000020305FA04F41C437450002070BD00BF08
:105D70002EEF0010C4510008072808B513D00AD828
:105D8000022814D004280CD040F2EB11094803F08B
:105D9000C3FB002008BD082807D01328F4D106480B
:105DA00008BD064808BD064808BD064808BD0648A7
:105DB00008BD00BF5DFC00105BFC001044FC00103F
:105DC00048FC00104BFC001043FC0010072808B5ED
:105DD00011D00AD8022812D0042811D04FF4007133
:105DE000084803F099FB002008BD082805D01328B7
:105DF000F4D1022008BD032008BD102008BD0120F9
:105E000008BD00BF5DFC00102DE9F0479146421C23
:105E1000152A98BFD2B298461B4B98BF33F8124050
:105E200033F81060194A4FF0010303FA00F388BFFA
:105E30004FF48B74134207468A4621D0FFF79CFF2C
:105E4000A8F80040054690B13846FFF7BFFF50451F
:105E50000DD915F80A30B14499440AF1010383427F
:105E6000A8F8009003DA55446C783444A4B2B8F82A
:105E70000000074BA0422CBF18460020BDE8F08769
:105E80007118A8F80010F2E7AAFC001094010800AD
:105E900000000204002070472DE9F341044601F0A0
:105EA000BCFB0DF106030646A27861782078FFF767
:105EB000ABFF804600BBBDF80630144DC3F3C702EC
:105EC0000127AA5C03F0070307FA03F31A421AD169
:105ED0000DF10603A27861782078FFF795FF8046E0
:105EE00050B9BDF80630C3F3C70203F00703A95C3D
:105EF00007FA03F30B43AB54304601F092FB4046E4
:105F000002B0BDE8F081DFF80880F5E7643E0008E4
:105F10000100020437B5044601F07FFB0DF10603D2
:105F20000546A27861782078FFF76EFF88B9BDF842
:105F300006300B48C3F3C701012203F007039A4060
:105F4000435C23EA02034354284601F06AFB03B092
:105F500030BD40F27221034803F0DEFAF4E700BFDF
:105F6000643E00085DFC00102DE9F04F421C152A2C
:105F700098BFD2B28A4627494FF0010531F8108008
:105F800098BF31F81230244A85B088BF4FF48B7324
:105F900005FA00F909EA0202A3EB08030024064609
:105FA00001921FFA83F827466B1E9BB2984501D8D1
:105FB0001A480FE003A88DF80C608DF80D708DF86D
:105FC0000E40FFF769FF40B98AF800608AF8017057
:105FD0008AF8024005B0BDE8F08F019B07F1010B84
:105FE000ABB13046FFF7C8FE81463046FFF7EEFE04
:105FF000834509DA09EB07035B78AB4204D15FFA0A
:106000008BF700240135CFE70134E4B2FAE75FFAF9
:106010008BF7F7E7AAFC00109401080002000204C5
:106020002DE9F04F002A174D174B85B007460C4657
:106030000CBF89464FF003094FF0040BA1451DD357
:1060400013F804A00026B24514DD5FFA86F803A811
:1060500001938DF80CB08DF80D408DF80E80FFF790
:106060001BFF019B18B93C7087F80180054601367B
:10607000002DE8D10134E4B2002DDFD1284605B06F
:10608000BDE8F08F020002043FFC001007B50423B6
:106090008DF8043003788DF8053043788DF806309C
:1060A00001A8FFF737FF03B05DF804FB1A4B73B587
:1060B0001B6804689D690389C4F307420E2AD8BF90
:1060C00005EBC215DEB2E4B21B0A0093324601238F
:1060D0002146284601F086FB0A2E04D00B2E0ED056
:1060E000002002B070BD072C04DD40F231310B48B6
:1060F00003F012FA012303FA04F4AC60F0E7072C72
:1061000004DD40F23131054803F006FA012303FAB9
:1061100004F46C60E4E700BFC45100082EEF0010E7
:106120000B4B13B51B680146C0F307400E28D4BFC4
:106130009B6998694FF00004D8BF03EBC01000942E
:1061400001230822C9B201F04DFB204602B010BD68
:10615000C4510008123820282AD8DFE800F01F298F
:10616000292929292929292929292929292929299F
:106170002929292A11131517191B1D212325270049
:1061800001207047022070470320704704207047A9
:106190000520704706207047072070470820704789
:1061A000092070470A2070470B2070470C20704769
:1061B00001BE00207047000000280DDB43090122CA
:1061C00000F01F0002FA00F02033044A42F82300D6
:1061D000BFF34F8FBFF36F8F704700BF00E100E048
:1061E000F8B5EFF30583103B9BB2A52B27D0A72B67
:1061F00024D10123134A52F82350134A52F8237032
:1062000041F23003FC6CEE5ABB6FB6B234401BB1A6
:1062100014B12146F86F984741F23003A4B2EC5212
:10622000FB6CDA0509D5F30507D541F23402AB5A08
:1062300023F480731B041B0CAB52F8BD01BE00237A
:10624000D8E700BF28FD0010883E00082DE9F34183
:106250001E4608238DF804308DF806000314054609
:1062600001A80F4690468DF80530FFF715FE04464D
:1062700080B942463946284601F0A2F920B9074CB8
:1062800001A8FFF747FE05E0FFF710FF04460028CE
:10629000F6D13560204602B0BDE8F081000042042E
:1062A00010B504460068431C04D001F097F94FF084
:1062B000FF33236010BD000073B544682346684671
:1062C00053F80C2B0D468DE80C0002F04FFC0646EF
:1062D00088B9022D12D0082D10D0012D0BD1A36F3B
:1062E00033B1626FD10303D54FF48031E06F98472B
:1062F0000A4B01221A70304602B070BD074D2A7851
:10630000002AF8D0A36F33B1626F920303D54FF424
:106310000031E06F984700232B70ECE7903E0008B7
:10632000F7B502AB1546002243F8042D1C4A04467B
:10633000505C194600F05EF984B378BB019F6FB3DF
:1063400041F22C060820A35B23F004031B041B0C62
:10635000A35303F0D9F8B7FBF5F1A35B23F00803CF
:106360001B041B0CA353C1F34F01204602F0FAFAA1
:10637000A35B9BB243F00C03A35358B9094B9D4256
:106380000AD009498D420CBF032102210022204678
:1063900002F064FB03B0F0BD0421F7E70348F9E71E
:1063A00030FD001080F0FA0240787D010200EA0022
:1063B00038B5044600B901BE2368C3B12379162B52
:1063C00015D0184B6279254633F91200FFF7F4FE19
:1063D00055F8040B02F09CFA2846FFF79BFD0023BA
:1063E00023601623237104F1580003F0F5FA04F139
:1063F0002C00FFF755FF04F13000FFF751FF04F1C7
:106400003400FFF74DFF04F13800FFF749FF04F1B6
:106410003C00FFF745FF04F14000BDE83840FFF7BE
:106420003FBF00BF32FD00102DE9F0410E468CB099
:1064300090461F46044600B901BE1623237100236F
:1064400023604FF0FF332363E3626363A363E3637B
:106450002364022204F130035C493046FFF7F6FE64
:10646000054600286FD104F12C030222584940460A
:10647000FFF7ECFE0546002865D104F1340308223D
:1064800054493846FFF7E2FE054600285BD104F187
:10649000380308224F491298FFF7D8FE0546002816
:1064A00051D104F13C0308224A491398FFF7CEFE6C
:1064B0000546002847D104F14003082245491498B5
:1064C000FFF7C4FE054600283DD102223F49304671
:1064D00001F076F8436801A81A889B788DF8063099
:1064E000ADF80420FFF7D8FC054660BB019BA380F4
:1064F0001A0CA271C3F30723374A52F82300206015
:1065000002F016FA012704AA694620688DF80150A6
:106510008DF800508DF802508DF81C7002F08CF947
:10652000236823652D4BA36504F15003646584F84B
:106530005C7025666366A566E56604F1580003F0A5
:106540000FFA20B902252046FFF732FF3AE0236810
:1065500041F238020821995241F23A0241F23201E5
:106560009D5246F2FF125A5241F2300102A85A528D
:106570001B4A6379E56442F823401A4A656732F999
:106580001360A5670723E5671749ADF80860039313
:1065900002F06CFF002E07DB7209144B06F01F0699
:1065A00007FA06F643F82260114E2068012102F036
:1065B000F1F9324661792068FFF7B2FE4023666444
:1065C000A4F8483028460CB0BDE8F0813000011036
:1065D000A80001104800011028FD0010B962001049
:1065E000883E000832FD0010E161001000E100E08B
:1065F000801A060010B50C4602F05CFE20600020F8
:1066000010BD000038B5EFF30583103B9BB21AB202
:106610007A2A03DD822A1CDD9A2A1FDD01BE0222AE
:1066200000231049120188188D58427B0E491A44E4
:106630009C0151F82200026822B12B194068D3F85E
:10664000301190472B190322C3F83021D3F8303191
:1066500038BD7B2100225B1ADBB2E2E783210122F5
:10666000F9E700BF38FD0010943E00084278074B60
:1066700003EB021382785B7B1344DBB2044A42F8DB
:10668000231000230B604B60704700BF38FD0010E3
:10669000943E00082DE9F3411B4E437806EB0313AB
:1066A00005465C7B83781C4488461746E4B200F0BC
:1066B000B4FF164B53F82430C3F800805F6000F03D
:1066C000B0FF6B78AA7806EB0316B37B13445C0922
:1066D000A40004F1604404F5614403F01F0522683E
:1066E00019B222FA05F3DB070AD40723ADF800102C
:1066F00068460749019302F0B9FE0123AB402360CD
:1067000002B0BDE8F08100BF38FD0010943E0008E3
:1067100005660010F0B58F789DF814E0BD014619AC
:10672000D6F83841BEF1000F18D022EA040EC6F8A0
:1067300030E1D6F83061144305445B01C5F83841B7
:106740004A78084901EB0211DBB28A7B3A4402F134
:10675000604202F5614282F80033F0BD24EA02048F
:10676000EAE700BF38FD001030B5134B1B6893F803
:106770003D40844204D9032902D819B9072A0BD90C
:106780000E4830BD012901D10F2AF8E7022901D1B5
:10679000032AF4E7002AF3D193F86D509C6893F82C
:1067A0006C3001F00301A9401A4000F5407011431C
:1067B00044F82010002030BDC451000801004A00F8
:1067C00008B5002002F076FD064B1B681A68D3F866
:1067D0008030D3581B0E013300EB5300B0FBF3F0B5
:1067E00008BD00BFC451000838B5044600B901BE59
:1067F0006279274B274803EB0213A2799B7B134452
:1068000059090122203103F01F0302FA03F340F873
:106810002130BFF34F8FBFF36F8F002C37D0236829
:10682000002B34D0A1798A405A60201DFFF772FBFB
:106830000023236016232371A37B43B3237B032B05
:1068400003D8627B1BB9072A0BD901BE19E0012BC3
:1068500001D10F2AF8E7022B01D1032AF4E7002A1D
:10686000F3D10D49096891F86D50886891F86C1062
:1068700003F003030A40AB4042F080421343C0F8E8
:10688000003404F10C00FFF701FC0023A37338BDB2
:1068900038FD001000E100E0C451000870B5437DF0
:1068A0000E78B34294B004460D4607D1027D4B7872
:1068B0009A4203D1837D8878984236D04C2223496E
:1068C00001A804F065FA6B680193AB680693AB7896
:1068D000002B14BF0023022305936B7886F001067A
:1068E000012B039603D0022B0CBF03230023206847
:1068F000A179049300EB811301AAD3F8386103F066
:106900008FFB01AAA179206803F01AFB2368A27902
:1069100003EB8213C3F8386128B92B7863756B7861
:106920002375AB78A37514B070BD2368A179EA68AC
:1069300003EB8113C3F808216A68C3F81421002807
